:100000000C9496000C94CE000C94B3000C94B300A6
:100010000C94B3000C94B3000C94B3000C94B30094
:100020000C94B3000C94B3000C94B3000C94B30084
:100030000C94B3000C94B3000C94B3000C94B30074
:100040000C94B3000C94B3000C94B3000C94B30064
:100050000C94B3000C94B3000C94B3000C94B30054
:100060000C94B3000C94B3003C0349006E00740080
:1000700065006C006C00690076006900730069001F
:100080006F006E00200043006F006E00740072006D
:100090006F006C006C006500720020007600330079
:1000A0002E003300260372006500740072006F009A
:1000B0006E006900630064006500730069006700FA
:1000C0006E002E0063006F006D000403090412012E
:1000D000010100000008100801E50601010200010D
:1000E0001201010100000008100801E506010102EB
:1000F000000105010905A1010901A100093009312B
:10010000150026FF00750895028102C00509190136
:10011000290F1500250175019510810209001500B0
:1001200026FF0075089501B20201C00011241FBE10
:10013000CFEFD8E0DEBFCDBF11E0A0E0B1E0E6E355
:10014000FCE002C005900D92A633B107D9F721E07B
:10015000A6E3B1E001C01D92AD38B207E1F70E94FD
:10016000DD030C9419060C940000A82FB92F80E031
:1001700090E041E050EA609530E009C02D9182277F
:100180009795879510F084279527305EC8F36F5FA9
:10019000A8F30895EADF8D939D930895CF93CFB789
:1001A000CF93C395489BE9F7489B09C0489B07C07C
:1001B000489B05C0489B03C0489B01C0A3C0DF9378
:1001C000C0916F01DD27CA58DE4F489B02C0DF9106
:1001D000EBCF2F930F931F9309B12FEF00FB20F963
:1001E0004F933F9319B14FEF012700FB21F93BE0FB
:1001F00031C04E7F012F19B1216028C0102F4D7FD3
:100200002260000009B129C04B7F2460012F00004B
:1002100019B12BC019B1477F28602AC04F7E09B1A0
:1002200020612CC04F7D19B120622FC04F7B09B1D6
:10023000206432C0422709B149934FEF00001027D4
:1002400010FB20F919B11570C9F1297F91F201272E
:1002500000FB21F909B1237F89F2315058F11027B1
:1002600010FB22F919B1277E79F2012700FB23F94F
:100270002F7C81F209B1102710FB24F92F7971F23C
:1002800000C019B1012700FB25F92F7359F200C0F6
:1002900009B1102710FB26F9223040F200C019B135
:1002A000012700FB27F9243028F64F77206819B181
:1002B0000000F9CF11E01CBB002719C03B5031955D
:1002C000C31BD04011E01CBB0881033CF9F00B3488
:1002D000E9F020916D011981110F1213EDCF4A81C0
:1002E000441F093641F10D3211F0013E29F7009308
:1002F00074013F914F911F910F912F91DF91CCB3DA
:10030000C0FD4FCFCF91CFBFCF91189520917401F1
:10031000222379F310917201112369F534306AF1C7
:100320003093720120936E0110916F013BE0311BFD
:1003300030936F0122C0009172010130E4F40AE5AC
:100340004F7049F43091010134FD19C0009301014F
:10035000C6E5D1E018C03091610134FD10C00093B2
:100360006101C2E6D1E00FC02795A8F45150A9F46D
:10037000220F0000F9CF4AE503C042ED01C0432F30
:10038000C4E1D0E032E01AB11560589A1AB90BB145
:1003900020E415E05F93012756E00BB9279520F480
:1003A000515021F4220FF9CF012756E000003B5AAB
:1003B0000BB9D0F2279528F4515029F4220F0000F0
:1003C000F9CF012756E027950BB920F4515021F4BD
:1003D000220FF9CF012756E0299133230BB921F6DB
:1003E0000A7F10917301110FC651D0400BB911F063
:1003F00010936D0111E01CBB01601AB11A7F402FF0
:100400004A7F5F9100C000C00BB91AB94BB971CFD8
:10041000CF93C62F2091610124FF0BC03091620160
:1004200028E8232720936201FC01A3E6B1E08C2F8A
:1004300004C02AE520936101F7CF91919D938150EB
:10044000E1F76C2F83E691E00E94CA00CC5FC09375
:100450006101CF910895CF93DF9360917201635052
:1004600067FDBAC080916F01CCE0D0E0C81BD10914
:10047000CA58DE4F80916E018D3209F09BC0683002
:1004800009F0A8C083EC809356018AE580930101AE
:10049000109236018881807621F0CE010E9482037D
:1004A00076C09A8110925F018981811106C01092F5
:1004B00060012FE531E082E065C0853019F490934A
:1004C00073015DC0863009F044C08B818130B9F181
:1004D000823029F4CE010E94530390E037C083306C
:1004E00009F5911109C08AEC90E090937101809315
:1004F000700190E484E02AC0913049F484EA90E0ED
:10050000909371018093700190E486E21FC0923055
:10051000D9F488E690E0909371018093700190E4A3
:100520008CE314C0813249F48FE591E0909371011E
:100530008093700190E489E009C0823229F4CE01F1
:100540000E94530390E402C090E480E0909336014F
:100550001EC0883069F0893019F4909375010FC07E
:100560008A3049F08B3059F48BE48093620107C0E4
:1005700025E731E002C02FE531E081E003C02FE53F
:1005800031E080E0309371012093700109C08F3F0A
:1005900039F4988197FD8E8190E89093360107C0D9
:1005A0009F81911104C09E81981708F4892F809330
:1005B000000110C08091360187FF0CC0CE010E945F
:1005C000D4038F3F21F48EE18093010103C0811198
:1005D00010920001109272018091010184FF46C0C7
:1005E000809100018F3F09F441C0C82F893008F085
:1005F000C8E08C1B809300019091560188E8892700
:1006000080935601CC2329F1809170019091710162
:100610002091360126FF0AC0A7E5B1E0FC012C2F8E
:1006200034913D9331962150D9F708C0DC01E7E5BC
:10063000F1E02C2F3D9131932150E1F72FEF2C0F5A
:1006400030E02F5F3F4F820F931F90937101809393
:1006500070016C2F87E591E00E94CA00CC5FCC301E
:1006600019F08FEF80930001C093010184E199B1EB
:10067000957031F48150D9F71092730110926D0189
:10068000DF91CF910895E9E6F0E080818260808378
:10069000E89AE1E6F1E08BE481838AE580830895BE
:1006A00082E190E00895FC019081892F807641F5E8
:1006B0009181963031F593819230D1F0923269F088
:1006C0009130F9F480914F01909150019093710114
:1006D0008093700180914E01089580915201909114
:1006E000530190937101809370018091510108959D
:1006F00082E091E0909371018093700182E208950D
:1007000080E00895DC0187E391E09093710180938C
:1007100070018C918076803209F042C011968C91E4
:1007200011978230A1F070F48130D1F5E0914B0146
:10073000F0914C010088F189E02D12966C9187E3CD
:1007400091E00994893071F18A3081F029C01296C4
:100750008C919FEF980F983018F590E0845C9E4F35
:10076000909371018093700181E008951296EC914D
:100770001297E1110BC0EDE3F1E013968C91139702
:10078000819381E0E534F807C1F70AC08FEF8E0F3F
:10079000883030F413968C91F0E0E45CFE4F808357
:1007A00080E008958FEF0895FC0180818A3519F467
:1007B00081E080938C01862F0895CDB7DEB728970E
:1007C000DEBFCDBF10928C0188E09E012F5F3F4FAE
:1007D0006901D901E82F1D92EA95E9F7EDE3F1E00F
:1007E000DF011D928A95E9F70E940D06FC019093A6
:1007F0004C0180934B0184819581909353018093A8
:10080000520182818093510180859185009731F05A
:100810009093500180934F01868108C08EEC90E048
:100820009093500180934F010E94500380934E019A
:100830008091510180931B019FE088E10FB6F894ED
:10084000A895809360000FBE9093600084B1807C77
:1008500084B987B18A7F87B987B18A6087B9579889
:1008600085B18F6385B988B1856088B988B1857F86
:1008700088B95F9A8AB185608AB9EFE2F5E7319766
:10088000F1F700C000008AB18A7F8AB914BC85E004
:1008900085BD82E08093B00087E08093B10086E060
:1008A0008093B30083B7817F83BFE0914B01F091C8
:1008B0004C010284F385E02D09950E94430378944E
:1008C00011E001E0AA24A394B12C92E0992EA895FE
:1008D00080918C01882359F0F8948FEE9EEB9093D1
:1008E0003C0180933B018AB185608AB9FFCF0E94A9
:1008F0002B02112341F0E0914B01F0914C01048453
:10090000F585E02D0995A89B24C005BBE0914B011E
:10091000F0914C0140815181ADE3B1E0F60180E0FE
:1009200090E010E084179507ACF43D91332371F00B
:100930002081253018F02550208308C03083950190
:10094000082E01C0220F0A94EAF7122B0196319665
:10095000E9CF10E0B99B27C097BAE0914B01F09125
:100960004C010484F585E02D0995E12CF12CE091F2
:100970004B01F0914C0180819181E816F9069CF4BD
:100980000684F785E02D81E08E0D0995882339F0E6
:10099000C5010E2C01C0880F0A94EAF7182BFFEF4F
:1009A000EF1AFF0AE4CF111102C010E090CFE12C42
:1009B000F12C612E712CE0914B01F0914C01808162
:1009C0009181E816F9068CF7C3010E2C02C09595AB
:1009D00087950A94E2F780FD04C02FEFE21AF20A2D
:1009E000EACF8091610184FFF8CF0088F189E02D82
:1009F00061E06E0D85E491E00995682F85E491E052
:100A00000E9408028091610184FDE7CF0E942B02C1
:100A1000A895F8CF84B1807C84B987B18A7F87B9E3
:100A200087B18A6087B9579885B18F6385B988B1D6
:100A3000856088B988B1857F88B95F9A80E008951C
:100A400023B186B199B18470382F3295330F307E3F
:100A50009078892F90E095958795832B922F9F739F
:100A6000892B80935501089581E020915501909143
:100A70005401291301C080E00895FC0150915501F3
:100A8000892B09F4C6C0352F3095932F9F789C3061
:100A9000A1F188F4943059F138F4923009F442C04D
:100AA000F0F59130A9F11AC0983051F1993071F1F7
:100AB0009630A1F419C09438E1F030F4923881F006
:100AC00058F5913839F10AC09838E1F018F49638A1
:100AD00049F004C09938C1F09C3869F090E823C00F
:100AE00090E00CC090E001C090E42FEF1DC090E8B2
:100AF000FCCF90ECFACF9FEFF8CF9FEF20EC14C023
:100B00009FEF11C09FEF0CC09FEF07C090EC05C096
:100B100090E803C090E401C090E020E005C090E0C0
:100B200020E402C090E020E8832F8077803579F0C0
:100B300020F4803351F444E00BC0803621F080373C
:100B400021F443E005C042E003C040E001C041E0C1
:100B5000353309F44DC0D8F4383109F452C048F4A3
:100B60003231C9F1343199F1313109F048C030E105
:100B700039C0323291F128F4313209F040C030E20C
:100B800031C0343231F13832D1F530E036C038344A
:100B9000D9F068F4313429F120F43A3381F534E0A6
:100BA00031C03234E1F0343451F531E01BC03A3514
:100BB000D9F020F4353519F530E418C03536D1F0C8
:100BC0003A36E9F438E019C030E040E21CC030E0C9
:100BD0000DC030E010C032E005C034E003C038E0A2
:100BE00001C030E440E00FC038E00CC040E40BC06E
:100BF00030E101C030E440E806C040E104C030E02C
:100C000004C030E048E090E820E8208391834283EC
:100C100033835093540184E00895E4E2F1E082EFDD
:100C200090E09583848380EE90E091878087CF0168
:060C30000895F894FFCFC7
:100C3600FF5A0902220001010000320904000001E6
:100C4600030000000921100121012200000705818F
:100C56000308000A010039000000120000000A051E
:060C6600200534053D05E8
:00000001FF
